:020000040000fa
:080000000002040000000000f2
:020000040000fa
:10000800f8030000f8030000f8030000f8030000fc
:10001800f8030000f8030000f8030000f8030000ec
:10002800f8030000f8030000f8030000f8030000dc
:10003800f8030000f8030000f8030000f8030000cc
:10004800f8030000f8030000f8030000146b000038
:10005800366b0000f8030000f8030000f803000006
:10006800f8030000f8030000f8030000f80300009c
:10007800f8030000f8030000f8030000f80300008c
:10008800f8030000f8030000f8030000f80300007c
:10009800f8030000f8030000f8030000f80300006c
:1000a800f8030000f8030000f8030000f80300005c
:1000b800f8030000f8030000f8030000f80300004c
:1000c800f8030000f8030000f8030000f80300003c
:1000d800f8030000f8030000f8030000f80300002c
:1000e800f8030000f8030000f8030000f80300001c
:1000f800f8030000f8030000f8030000f80300000c
:10010800f8030000f8030000f8030000f8030000fb
:10011800f8030000f8030000f8030000f8030000eb
:10012800f8030000f8030000f8030000f8030000db
:10013800f8030000f8030000f8030000f8030000cb
:10014800f8030000f8030000f8030000f8030000bb
:10015800f8030000f8030000f8030000f8030000ab
:10016800f8030000f8030000f8030000f80300009b
:10017800f8030000f8030000f8030000f80300008b
:10018800f8030000f8030000f8030000f80300007b
:10019800f8030000f8030000f8030000f80300006b
:1001a800f8030000f8030000f8030000f80300005b
:1001b800f8030000f8030000f8030000f80300004b
:1001c800f8030000f8030000f8030000f80300003b
:1001d800f8030000f8030000f8030000f80300002b
:1001e800f8030000f8030000f8030000f80300001b
:0801f800f8030000f803000009
:020000040000fa
:10020800f8030000f8030000f8030000f8030000fa
:10021800f8030000f8030000f8030000f8030000ea
:10022800f8030000f8030000f8030000f8030000da
:10023800f8030000f8030000f8030000f8030000ca
:10024800f8030000f8030000f8030000146b000036
:10025800366b0000f8030000f8030000f803000004
:10026800f8030000f8030000f8030000f80300009a
:10027800f8030000f8030000f8030000f80300008a
:10028800f8030000f8030000f8030000f80300007a
:10029800f8030000f8030000f8030000f80300006a
:1002a800f8030000f8030000f8030000f80300005a
:1002b800f8030000f8030000f8030000f80300004a
:1002c800f8030000f8030000f8030000f80300003a
:1002d800f8030000f8030000f8030000f80300002a
:1002e800f8030000f8030000f8030000f80300001a
:1002f800f8030000f8030000f8030000f80300000a
:10030800f8030000f8030000f8030000f8030000f9
:10031800f8030000f8030000f8030000f8030000e9
:10032800f8030000f8030000f8030000f8030000d9
:10033800f8030000f8030000f8030000f8030000c9
:10034800f8030000f8030000f8030000f8030000b9
:10035800f8030000f8030000f8030000f8030000a9
:10036800f8030000f8030000f8030000f803000099
:10037800f8030000f8030000f8030000f803000089
:10038800f8030000f8030000f8030000f803000079
:10039800f8030000f8030000f8030000f803000069
:1003a800f8030000f8030000f8030000f803000059
:1003b800f8030000f8030000f8030000f803000049
:1003c800f8030000f8030000f8030000f803000039
:1003d800f8030000f8030000f8030000f803000029
:1003e800f8030000f8030000f8030000f803000019
:0803f800f8030000f803000007
:020000040000fa
:100400004ffb2100ae7e22000e018800000000009c
:1004100000012000200288000c000700a0912700a6
:100420000100200011000700000020000000e00093
:100430000200320000000200000000008e81020075
:10044000000000000040da000000fe004440a90067
:10045000403a20000000e0000300320000002000cd
:10046000a00188004440a800000006009101880017
:10047000800078000000eb0015003700e2804000ab
:1004800032a0b4009101ba00e280400032a0b40072
:100490009102ba00e280400032a0b4000002eb00fa
:1004a000472bde00f507b200602ce10004003a00a3
:1004b0000059eb008301e900fdff3e000400370016
:1004c0006128e100010032000082eb000400070017
:1004d0001101ba000200e000e8ff3a000000060047
:1004e0003159ba008301e9000c0032002159ba00e9
:1004f0008301e900080032000400e00003003a0034
:10050000e280400032a0b400f5ff370011d9ba00f4
:100510008301e900faff3a008100e800e180400031
:1005200032a0b4000000060000000000000000003f
:1005300000000000000000000000000000000000bb
:1005400000000000000000000000000000000000ab
:10055000000000000000000000000000000000009b
:10056000000000000000000000000000000000008b
:1007f0000040da000000fe0003f0a200889fbe0067
:100800008a9fbe008c1f78004a0107005101330007
:100810006450e1004f0032006420e10052003200d9
:1008200003826c0007003b000905d0000306d000de
:10083000820f54000c065d000200390002003200f5
:1008400089017800030678008582550004003d0088
:100850000003fd008103fd008502ea008b85420054
:10086000840f720002003b0060001000e08018005e
:100870006011b8000005eb007a28e1000a00390099
:1008800006007800c75ddd00f707b20087807500bd
:100890002d003700828171000a0178006105600037
:1008a0008180d1000080d3008502e900f9ff3b0080
:1008b000060440008784480002003b0060041400e6
:1008c000e0841c000988a300070032008a817100bf
:1008d00082817100610164008904d1000884d30021
:1008e0008b05e800170037000978a30013003a00d1
:1008f0000b00e000130034008b05e90008044400fd
:1009000089844c000a4474000978a3000d003a0061
:100910000b00e000070034008b05e90008044400e8
:1009200089844c0001003a000b0020000978a300e4
:10093000f7ff32000001eb000200370082817100f6
:100940000a017800c00007000cf0a70001f0a00029
:10095000090137006420e10002003a00838f6c0037
:10096000090133000801be000200be000201370089
:10097000889fbe008a9fbe008c1f7800ed00070094
:10098000f400330003866c006450e1002e00320056
:100990006420e100330032006150e1002f0032009a
:1009a0006120e1003100320085855500eb07b00081
:1009b0000900200008042000050037000804440056
:1009c00089844c000a0031000603430087834b00f2
:1009d0000001530081815b00f8ff33000203be0079
:1009e0000800a0000804440089844c00f6ff390088
:1009f000c639dd00830173000100320013002000be
:100a00008904d1000884d3000998a30005003200ae
:100a10000800a7000300a0008904d1000884d300c7
:100a20008b05e8008904d1000884d3000001eb00a5
:100a30000281d2008400070001f0a1000cf0a700a1
:100a400001f0a000cc0037006420e100ce003200ad
:100a50000801be000200be00f7ff37006120e10080
:100a6000c90032006000b800f3ff3700000020002a
:100a700001f82700f0ff370014002000c201370002
:100a8000f4ff2f00c00137000003be0094000700f0
:100a90006011b8000470a70007f0a10007f8a300d8
:100aa00017003a006509b1000d0032000d00350055
:100ab000860220000628e10003003500030028001c
:100ac0006000b8000200050000004000818048007e
:100ad00002014900838149008502e900faff3a00da
:100ae00000000600f88f4200050034008100d100ac
:100af0000080d3008502e800fcff3a0000000600f9
:100b00006011b8008000eb00000005000001be008d
:100b1000730007000470a70003f0a10003f8a3000e
:100b200013003a006509b1001000320009003500d9
:100b30006928e100020035000100280000000500de
:100b400000004000818048008502e900fcff3a0077
:100b500000000600f88f4200050035008100d1003a
:100b60000080d3008502e800fcff3a000000060088
:100b70008000eb00000005004f89de008201780054
:100b80009c013700889fbe008a9fbe0000827000d3
:100b90000402710004827100260032000004be00cd
:100ba0000200be006011b8006b0920009502200011
:100bb0000182cf000a0039000541b1000082cf0058
:100bc000070039000541b1000982cf000400390057
:100bd0000541b1000882cf00010039000541b10094
:100be00005425200120032000a003b00828171006f
:100bf000610164008100d1000080d3008984d300aa
:100c00000884d3008b05e8000442e800f7ff3a00af
:100c1000070037000804440089844c0000004800a5
:100c2000818048008b05e9000442e900f9ff3a00a1
:100c3000050007004f05be004f04be00000006007f
:100c40006011b800cfff370081002000618055009f
:100c50000b003d000b00200061fe2f000100e100b1
:100c60001d00340082817100610164008904d1009b
:100c70000884d3000000e800faff3a007100200069
:100c8000610064000300700002006000090032008f
:100c900061044400e0844c000988a500050032008e
:100ca0008b05e8006808e10002003a008904d100e1
:100cb0000884d300f20f20000258e10005003d0037
:100cc000c75ddd00f907b200898075000800780073
:100cd000000006000bf827008b00780000000500dc
:100ce000c70ade00f107b200f50fb20008003200bb
:100cf000e1cf4200020032000170a0002400050094
:100d0000810f700001003200040805004400050056
:100d1000810f700002003a00140005008502e9000e
:100d20000000400081c04800fcff3b000170a000b3
:100d3000240005000004be00e9ff07000003be0018
:100d40000405be000200be00e5ff0700844f7500e9
:100d5000000006000200be006450e10005003600fd
:100d60006420e100020036000968a30001003a0097
:100d70000800be000160a0004f0678004f05be00cd
:100d80004f04be0000000600f0ff2f00f1ff270017
:100d9000f9ff3700889fbe008a9fbe008c1f780035
:100da000e4ff0700ebff330003866c006450e100b2
:100db000240032006420e100270032006150e1008d
:100dc000220032006120e100210032008b854200c8
:100dd000eb07b1000134b800003ab8000804420043
:100de00089844a00013ab8000030b8008880400089
:100df00009014a00040033000000400081804800df
:100e0000020149008b05e900c909dd00830170007a
:100e10000100320013002000c814de004814dd0079
:100e20004709de001200b200c808de000884700026
:100e300085ff070001f0a1000cf0a70001f0a00061
:100e4000cdff37006120e100cfff32000801be0076
:100e50000200be00f7ff37006150e100fcff3a00de
:100e6000c9ff37006022b800060220000000d00051
:100e70008180d2000482d2008582d2000000a000ce
:100e80000202520083825a00030031000202420033
:100e900083824a000000a1000603e900f3ff3a0044
:100ea00000000600efff07000400be00000006007f
:100eb000889fbe008a9fbe003004be002005be0091
:100ec0000404440085844c0006054d0087854d00d0
:100ed0000898be000a90be000440e10005c8e10089
:100ee00006d0e10007d8e1000200310068004000b0
:100ef0001008e8004f05be004f04be0000000600c9
:100f00001000fa00889fbe008a9fbe000605be0042
:100f10000404be003002be002003be00c4b79f0020
:100f2000d5b79f00e6b79f00f7b79f0008025200b1
:100f300089825a000a035b008b835b0084bf9f0099
:100f400095bf9f00a6bf9f00b7bf9f000498be003b
:100f50000698be00110020004fb29700dfb2970044
:100f60006fb39700ffb397000820e10009a8e100e4
:100f70000ab0e1000bb8e100010039008000eb008d
:100f8000108810004f05be004f04be000080fa001c
:100f9000000006001400fa00889fbe008a9fbe0071
:100fa0008c9fbe003f0007000605be000404be0083
:100fb0000006eb00ccb79f00bcb79f00acb79f000a
:100fc0009cb79f008cb79f000d0420004fb3970083
:100fd000bfb29700860343002fb29700e00f530083
:100fe00004003d003d0007000f004000b0ff070077
:100ff00003003700390007000f004000c0ff070062
:10100000cfb2970095bf9f00e08f520009003500d6
:101010002b00070014002000050020006033b800fa
:1010200000007200818072000201730083817300ee
:101030001c0007000c06e8008d0f5600e3ff3a0085
:101040001fba9700e00f520005003d000802be00e5
:101050000a03be0000fe2f000f00400094ff0700af
:101060004faa9700e00f520008003a000fb4970013
:101070009fb497002fb59700bfb59700d8b79f00d2
:10108000e9b79f00fab79f008bbf9f000c000700d5
:101090004f06be004f05be004f04be000080fa00a0
:1010a00000000600010007000000060090b79f0046
:1010b000a1b79f00b2b79f00c3b79f000000060012
:1010c00001000700000006001fb09700afb09700b6
:1010d0003fb19700cfb19700000006004f2bde0014
:1010e00087037300a7b79f004f23de00858242006d
:1010f0008502730095b79f00ffaa97004f2bde0073
:10110000040242000402730084b79f006faa970094
:101110004f23de008582420085027300f5af9f00f9
:10112000e9ff07004f18de000402420000027200cf
:10113000e4af9f00e4ff070000004000818048000a
:101140000201490083814900d8ff07000802be0060
:101150000a03be0000fe2f0000000600881f780072
:1011600018002000881f78008aff07008f87e90099
:101170004f04780000000600801feb0085ff070089
:101180008f87e90000000600889fbe008a9fbe008e
:10119000841f7800e7fe07004f007800110033003d
:1011a000f0ff2f00838f6c0006003b0004056500f4
:1011b0000a00a7000800370009f0a6001000200070
:1011c00008003700820f5400838f5c000300390051
:1011d0001000200001003e000000200009f0a700e0
:1011e0000000ea004f05be004f04be000000e00012
:1011f00000000600881f7800030478000300e00068
:1012000007003d0060001000e08018006001190038
:10121000e081190002003b0001f02d0003003700bf
:1012200058fe070008f0a70001f0a0004f04780066
:10123000000006000002780002003700315a7800f2
:101240000201e900e00f5100fcff3a000000060037
:101250000002780002003700015a78000201e9001c
:0c126000e00f5100fcff3a000000060007
:020000040000fa
:10126c00525500004e00000052450000545500003d
:10127c00524e0000000000004c4900005354000086
:10128c000045000058490000540000004e45000085
:10129c00570000004c450000540000004946000077
:1012ac0000540000484500004e000000454c000072
:1012bc0053450000004700004f5400004f00000051
:1012cc00474f0000535500004200000052450000fb
:1012dc004d00000050520000494e00005400000028
:1012ec00494e00005055000054000000464f0000cd
:1012fc0052000000544f0000004e00004558000002
:10130c00540000005245000041440000004400001d
:10131c0041540000410000005354000041520000b1
:10132c00545200000053000054410000525400007d
:10133c0000530000544f00005052000000530000b6
:10134c00544f000050000000534500004e44000074
:10135c00005200004543000045490000564500007e
:10136c00004300004c4b00000044000041540000be
:10137c000042000049540000524500004144000066
:10138c00004100004443000000410000555800009b
:10139c00504900004e000000505300005500000062
:1013ac00505500004c4c000055500000004400000b
:1013bc00454c000041590000004100005558000008
:1013cc00004600005245000051000000445500004a
:1013dc0054590000004d000041430000524f0000e2
:1013ec00004500004e440000000000005089000041
:1013fc0054890000578900005c8900006189000055
:10140c00668900003a8900006c8900007089000030
:10141c00768900007c8900008089000083890000a7
:10142c00888900008d89000092890000998900004c
:10143c009f890000a5890000aa890000af890000df
:10144c00b7890000bb890000bf890000c789000074
:10145c00cb890000d2890000d6890000dd8900000c
:10146c00e3890000e7890000ec890000f1890000a5
:10147c00f789000000000000002e0000003a000078
:10148c0020000000005e0000bce20000613f000094
:10149c00dd830000c29c00007e200000a3fd000044
:1014ac001f4100009dc30000217f0000fca2000032
:1014bc00401e00005f010000e3bd00003e60000024
:1014cc0082dc0000237d00009fc10000421c000054
:1014dc00fea00000e1bf00005d03000080de000004
:1014ec003c620000bee00000025c0000df810000f6
:1014fc00633d00007c220000c09e00001d430000e4
:10150c00a1ff000046180000faa400002779000093
:10151c009bc5000084da000038660000e5bb0000c3
:10152c0059070000db85000067390000bae40000b1
:10153c000658000019470000a5fb000078260000a3
:10154c00c49a0000653b0000d9870000045a0000d3
:10155c00b8e60000a7f900001b450000c698000083
:10156c007a240000f8a60000441a000099c7000075
:10157c00257b00003a64000086d800005b05000063
:10158c00e7b900008cd20000306e0000edb3000013
:10159c00510f00004e100000f2ac00002f71000043
:1015ac0093cd0000114f0000adf30000702e000031
:1015bc00cc920000d38d00006f310000b2ec000023
:1015cc000e500000aff10000134d0000ce90000053
:1015dc00722c00006d330000d18f00000c52000003
:1015ec00b0ee0000326c00008ed00000530d0000f5
:1015fc00efb10000f0ae00004c12000091cf0000e3
:10160c002d730000ca94000076280000abf5000092
:10161c001749000008560000b4ea000069370000c2
:10162c00d58b000057090000ebb5000036680000b0
:10163c008ad4000095cb000029770000f4aa0000a2
:10164c0048160000e9b70000550b000088d60000d2
:10165c00346a00002b75000097c900004a14000082
:10166c00f6a80000742a0000c8960000154b000074
:10167c00a9f70000b6e800000a540000d789000062
:10168c006b35000049090000004f00000900000004
:10169c0048090000004c000009000000000d00008b
:1016ac000a28000000780000002900003e0000001d
:1016bc0008200000080000002e200000004200005e
:1016cc007573000020500000697200006174000006
:1016dc0065200000763300000043000068720000b3
:1016ec0069730000746f0000706800006572000080
:1016fc0020530000616d0000205300006f6f00004c
:10170c006e2000002d200000436f00006d6d000066
:10171c00756e0000697400007920000046690000b5
:10172c00726d000077610000726500002076000089
:10173c00372e0000312d0000310000002900000080
:10174c003e0000001b5b0000440000001b5b00001f
:10175c0000440000001b00005b430000001b000065
:10176c005b3200004b0d000000430000001b00002a
:10177c005b320000440000002e2000003c00000002
:10178c00000000000100000000000000020000004a
:10179c000000000004000000000000000800000031
:1017ac0000000000100000000000000020000000fd
:1017bc00000000004000000000000000800000005d
:1017cc00000000008000000000000000000100008c
:1017dc0000000000000200000000000000040000f7
:1017ec0000000000000800000000000000100000d5
:1017fc00000000000020000000000000004000007d
:10180c00000000000080000000000000000000004c
:10181c0001000000000000000200000000000000b9
:10182c0004000000000000000800000000000000a0
:10183c00100000000000000014340000040d000033
:10184c008206000040030000a0010000cf00000051
:10185c006700000044000000220000007f00000030
:10186c0000000000000000002c010000000000003f
:10187c005802000000000000b0040000000000004e
:10188c006009000000000000c01200000000000011
:10189c00802500000000000040380000000000001f
:1018ac00004b0000000000008070000000000000f1
:1018bc000096000000000000c0da000000000000ec
:1018cc0000e100000000000000c200000100000068
:1018dc0000f400000100000000e80000030000001c
:1018ec0030300000302c00000030000030000000d0
:1018fc000808000008080000080000000030000084
:10190c003132000033340000353600003738000027
:10191c0039410000424300004445000046000000ed
:10192c00314100004c530000014200005076000091
:10193c003300000021000000001000000023000014
:10194c00000f000042400000400500004102000072
:10195c000000000000000000181c00001d0c00001e
:10196c00161a00000b0f00001e1700001b000000d1
:10197c0014500000010800000103000000000000ea
:10198c00003500003f6200006100000029000000eb
:10199c0000000000002000002900000000000000f2
:0819ac00000000000000000033
:020000040000fa
:1019b4004516800000826200b0b4280001003200a5
:1019c40080b42800ba68020000000000000006008d
:1019d400551680000082620010b528000100320014
:1019e400e0b42800ba68020000000000000006000d
:1019f40004c3b300e00f5000010032000442e800c9
:101a0400044078003e670200000000000000060069
:101a1400889fbe008024290001002000d28002009b
:101a240000000000c06a280001002000d2800200eb
:101a34000000000080e028000100200078800200ff
:101a44000000000074f82100144278008482fb0036
:101a54000403200004aab9004402b00085c6210092
:101a640065027a000400010000252900010020001d
:101a7400788002000000000000402000ccff070036
:101a840000102000caff070000202000c8ff070044
:101a940000042000c6ff070000082000c4ff070060
:101aa40040b52800cc69020000000000403c290039
:101ab40001002000788002000000000021e3a8005b
:101ac400a0002000fa650200000000004068020047
:101ad4000000000068422900090020000800be0040
:101ae400788002000000000090c0b3003e6702004e
:101af4000000000090002000fa65020000000000d1
:101b040040680200000000000800be007880020067
:101b14000000000090c0b3003e6702000000000017
:101b2400c0002000fa6502000000000040680200c6
:101b3400000000000800be007880020000000000e1
:101b440090c0b3003e67020000000000b000200017
:101b5400fa65020000000000406802000000000076
:101b64000800be00788002000000000090c0b300ae
:101b74003e6702000000000021e3a90000402000ad
:101b840093ff07000010200091ff070000202000b1
:101b94008fff0700000420008dff070000082000cd
:101ba4008bff070040b52800cc690200000000004c
:101bb4004f04be0000000600889fbe008a9fbe003e
:101bc400c6f7800006027800f407b20085e1210020
:101bd40065407a00f4ccb30004424000e84f520060
:101be40019003e000080fb000003b1000602e8007b
:101bf400f407b200e5427a0007cdb30087c3420080
:101c040014002000e9cf530078003e00f8072000bc
:101c140083e1210002cdb3006a00b9008582fb0094
:101c2400008042000003b1000402e8008602420082
:101c340088826200e3c27a0082c34200e9cf530083
:101c4400f5ff36006900370004c3b300844f500029
:101c540061003a000602e800f407b20085e12100c1
:101c6400e5427a0024c6b30084cf52000b003a0048
:101c74000682e800f407b20085e12100e5427a001b
:101c840007cdb30087c342000000eb00240020000e
:101c9400e1cf5300050036005400370024c4b300dc
:101ca40084cf520010003a00f1ff3700f307200000
:101cb40082e1210001cdb300000040008582fb00d9
:101cc400050040000003b1000402e800860242005f
:101cd40083826200e2c27a0081c34200e1cf5300f2
:101ce400f5ff36004100370084c7b30084cf5200ab
:101cf4000a00320084c5b30084cf52001f003a00aa
:101d0400090037004400dd000003b1008582fb00b8
:101d1400050040000402e8000b0037000000eb005f
:101d240024002000020037000000eb002400200003
:101d3400f807200082e1210003cdb300f9cbb30002
:101d44000ac2b300fbc9b300860342008883630060
:101d5400e2c27b0083c04200e9cf5000e9ff3600b5
:101d640089c04200e5cf5000270036008bc04200f6
:101d7400e5cf5000240036001c00370007cdb30027
:101d840087c342000000eb0014002000e9cf530099
:101d940016003e000580fb000003b100f807200098
:101da40083e1210002cdb3006a00b9008582fb0003
:101db400008042000003b1000402e80086024200f1
:101dc40088826200e3c27a0082c34200e9cf5300f2
:101dd400f5ff36000500370015c0b300a4ef21005d
:101de400054a78000000eb0004003700c5f78000c6
:101df40005024200f407b200c4f788004f05be0094
:101e04004f04be00000006008ac2720005f17b0088
:101e14004400dd007005b1008582fb000500400030
:101e2400bcff3700881f7800c4f780008402e800f4
:101e3400f507b20086e1210066c37a001000200095
:101e4400a5c3b300854f530009003a000482e8009b
:101e5400f807200008026200c4f7880056ff070054
:101e6400c4f780000402e90008046200c8f788008f
:101e74004f04780000000600881f7800c4f7800033
:101e84008402e800f507b20086e1210066c37a0007
:101e94000000eb00b5c3b300854f530009003a00be
:101ea4000482e800f807200008026200c4f78800f2
:101eb40041ff0700c4f780000402e900080462003f
:101ec400c8f788004f04780000000600c4f78000bb
:101ed40085e1210065437a0005c2b300854f5300b4
:101ee40009003a00f007200087e12100054378004b
:101ef4000402e80000026200e7427a0086cf520042
:101f0400fbff3200c4f7880000000600f687470094
:101f1400889fbe008a9fbe008c9fbe008e1f7800e3
:101f2400e0b79f00d1b79f00a2b79f0083bf9f0077
:101f34000ecdb300dcc2b300ecef9f008dc7b3003d
:101f440028d3280009002000b8b79f00c9b79f0014
:101f540050b52800ba68020000000000efb29700f4
:101f6400e08f520004003d0090b52800ba680200da
:101f740000000000030037004fe897001c680200cf
:101f840000000000b0b52800ba680200000000009c
:101f94000005eb008a0578003667020000000000a7
:101fa40000447800ed4f54004300320005003e0029
:101fb400e84f540008003200ea4f540027003a006a
:101fc4003d0037008c4f5400150032008d4f5400f3
:101fd40022003a001d003700e08f55000500320052
:101fe4008b05e900e0b52800ba6802000000000093
:101ff400e9ff3700e00f550005003200e0b5280086
:10200400ba680200000000000005eb00e2ff3700a0
:1020140070c0b3003e67020000000000deff37001e
:10202400e08f550005003a006fe897003e67020014
:10203400000000001a002000d7ff370070c0b30072
:102044003e67020000000000d3ff37000fb897007e
:10205400e00f5000140032003a0037000e424400f2
:10206400e94f520010003e00e38f55000500340094
:1020740070c0b3003e670200000000004b00200067
:10208400c5ff3700084078003e67020000000000ea
:1020940088427800e4fd2f000f02420005f27d0023
:1020a4008b05e800bcff370070c0b3003e67020038
:1020b40000000000b8ff370040b52800cc690200da
:1020c40000000000e08f5500220032000b02e900fe
:1020d4000003eb00860f52000a003500e4fd2f00d8
:1020e4000f0242008b0542006a33b9003440780085
:1020f4008082fb000503b100068342008b0f52006f
:10210400f9ff3a005fb29700860f520008003c00c6
:10211400afb29700868f520005003500e00f5500de
:102124000b0032000602ea00e4b79f000900370002
:102134003fb09700cfb09700d280020000000000ab
:1021440083ff37000080eb00e0b79f0001003700f9
:10215400e6b79f006fb097004f0778004f06be00a8
:102164004f05be004f04be006f01b1000000060021
:102174000e00fa00889fbe008a9fbe008c9fbe009e
:10218400c4f780000404e900f807b2001d00200031
:10219400880f52002a00320089e12100fb07200049
:1021a40069427c00e04f520020003a000806e80033
:1021b4000b06660069427e00e04f52001b003200ad
:1021c4000d4078001c6802000000000020b62800c2
:1021d400ba6802000000000069407e00e04f500031
:1021e400080032000885e8003e6702000000000095
:1021f4000b02650069407a000a05e800e04f5000d0
:10220400f9ff3a000d8246000c037800fa82570069
:1022140086327a008d06e800e78f56000800320007
:1022240040b52800cc690200000000000804e90061
:102234000b046400c4f78000840f5400d8ff3a00f4
:1022440040b52800cc69020000000000a03029003d
:1022540001002000d28002000000000013002000d2
:102264000d017800830078000000eb0027ff0700d1
:102274000002e800e10f52000b00360000004000ad
:102284007a825700e400780001027800f407b20073
:1022940085e12100e5427a000002eb00e0cf520024
:1022a40006003a001200370040b52800cc6902004d
:1022b40000000000100020001c003700b2f780006e
:1022c4000002eb00f707200086e121000200420033
:1022d40007006000057378000402e80081024200f0
:1022e40087826200e6c27a00e0cf5200f7ff3a002c
:1022f400b6f780000603e900f50720000503630034
:10230400c6f788000683e800040243000502620061
:10231400b4f788000402e900850262000043eb0080
:1023240084e1210006f27a000000eb004f06be00b3
:102334004f05be004f04be000080fa0000000600f6
:10234400889fbe008a9fbe00c4f780000402e80094
:10235400f407b200c4f78800dcfe070016fe07008d
:10236400e00f500046003a000004eb00090320008f
:102374008ac621000840e8001c6802000000000032
:1023840020b62800ba6802000000000009c0b900a5
:102394008002b0000a004000cc6902000000000086
:1023a4000804e800e90f5400f2ff3a00e0ea2800cc
:1023b40001002000d280020000000000a4ef2100f0
:1023c400004aeb00130020009200200083007800f4
:1023d40003007800cdfe07000004e9000000e800d7
:1023e400e10f500005003e00a01429000100200068
:1023f400d2800200000000004100370079f821007b
:10240400994278000582fb000a0320000aa2b90061
:102414002402b0008bc621006b027a000400010084
:10242400b665020000000000884c78000882fb00ba
:102434000aa2b9007e0542006b027d00040001007f
:10244400c0fa280001002000d28002000000000031
:10245400e00f540005003200c222a800607b28006f
:1024640001002000d2800200000000004038290052
:1024740001002000d280020000000000200037008c
:102484000004e900e80f540019003c0079f8210029
:10249400994278000582fb000a0320000aa2b900d1
:1024a4002402b0008bc621006b027a0004000100f4
:1024b400b665020000000000884c78000882fb002a
:1024c4000aa2b9007e0542006b027d0004000100ef
:1024d400e00f540001003200c222a8004038290055
:1024e40001002000d2800200000000000400370038
:1024f400e0eb280001002000d28002000000000070
:10250400b4f780000402e900f407b200c4f78800bd
:102514004f05be004f04be0000000600889fbe00a9
:102524008a9fbe0050b62800ba680200000000006e
:10253400e0c2b3003e6702000000000044f821003e
:10254400144078003e6702000000000005fc800093
:10255400f4442000848f520004003a00e0ef280085
:1025640001002000788002000000000040b528002f
:10257400cc6902000000000030b72800ba680200ed
:1025840000000000b0c5b3003e6702000000000078
:10259400190020000004eb000a0320008bc6210070
:1025a400020037000804e8008904e800e00f540042
:1025b4007300320000c2b3003e6702000000000056
:1025c4000ac0b9008002b0000b004000ba680200e3
:1025d40000000000e88f5400f2ff3600d0c5b300bd
:1025e4003e67020000000000e01529000100200001
:1025f4007880020000000000a1bf2a000000eb0068
:102604003266020000000000000478004840de004a
:102614001c68020000000000e0c2b3003e67020034
:1026240000000000084078001c6802000000000060
:1026340040b52800cc6902000000000000312900e8
:1026440001002000788002000000000008f821004a
:1026540018007800566702000000000000342900ca
:1026640001002000788002000000000010fc8000bf
:102674005667020000000000201c29000100200011
:102684007880020000000000f4442000980f12003b
:1026940005003a0000422900010020007880020071
:1026a4000000000004003700e04129000100200080
:1026b400788002000000000014fc80002504230040
:1026c400850f52001100320004003e00f503b100f2
:1026d400850f52001c003a00070037003504230020
:1026e400850f52000e003200e3824200850f520033
:1026f40015003a000f003700604129000100200056
:102704007880020000000000130037008041290097
:102714000100200078800200000000000e00370055
:10272400a041290001002000788002000000000080
:1027340009003700c0412900010020007880020010
:102744000000000004003700c03d29000100200003
:10275400788002000000000040ba2800cc69020022
:102764000000000040c3280001002000d2800200c5
:10277400000000004f05be004f04be00000006002c
:102784000ac0b9008002b0000b004000ba68020021
:102794000000000083ff37004f02b000889fbe0096
:1027a4008a9fbe008c9fbe008e1f78000002eb0043
:1027b400c4f78800b4f7880075f82100844a7800cb
:1027c400a5ef2100844a7800b5ef210047000900f5
:1027d400805aeb0024fa880084bf9f0094b79f00be
:1027e40084037800a7b79f006c2e29000d002000f9
:1027f400eae828000b0020008422290005002000bc
:10280400a4af9f00b5af9f008aaf9f009baf9f000e
:1028140074f82100144278000480fb0004032000b3
:102824000480b90004c9210004004000ba68020011
:102834000000000084f821001402780064026200a1
:10284400030032000c00be0078800200000000008b
:1028540060ba2800ba680200000000008003eb00a0
:10286400f7b79f008ee1210069f5210024fa80006a
:10287400e00f5200420032000402e90024fa88000a
:102884007822b900b6ef210066407a00e04f50008c
:10289400110032000004eb00b4f7800000777a00e6
:1028a4003e670200000000000804e800b4f780005e
:1028b4000402e800f407b200b4f7880024fa8000a8
:1028c4007822b90004024400b7ef210067407a007f
:1028d400e04f5000f0ff3a000002eb0024fa8800b9
:1028e400270037009942780064c262002600320053
:1028f40076f82100164378000682fb0008a2b9008e
:102904007a0242006a027a0004000100e04f50009b
:102914001d00320077f82100974378000782fb00fe
:1029240008a2b9008402b0000a004200ba6802009a
:102934000000000060ba2800ba680200000000002d
:10294400cbf78000b4f78000848f55000e0032006e
:102954008b0f52000c0032006ec07d003e670200f7
:1029640000000000f4072000848565008b05e80062
:10297400b4f78000848f550003003200f6ff37005f
:10298400080320008ac621008266020000000000bd
:10299400e04f5000d3ff3200e06a02000000000064
:1029a400e04f500003003200e66a0200000000001d
:1029b400aeff3700366702000000000000447800d4
:1029c4000882fb0005002000f6072000860f520055
:1029d400e08f5a008f023e00046001008502370038
:1029e400430237000c0137008a023700bc0037006d
:1029f400550237001f013700860237007700370081
:102a040084023700660237008202370081023700f1
:102a140063023700960137007e0237002401370035
:102a24007c0237007b0237007a02370079023700d4
:102a340078023700770237007602370075023700d4
:102a44007402370073023700cd003700710237007b
:102a5400700237006f0237006e0237006d023700d4
:102a64006c0237006b0237006a02370069023700d4
:102a740068023700670237006602370065023700d4
:102a840064023700630237006202370061023700d4
:102a9400600237005f0237005e0237005d023700d4
:102aa4005c0237005b0237005a02370059023700d4
:102ab40058023700570237005602370055023700d4
:102ac40054023700530237005202370051023700d4
:102ad400500237004f0237004e0237004d023700d4
:102ae4004c0237004b0237004a02370049023700d4
:102af40048023700470237004602370045023700d4
:102b040044023700430237004202370041023700d3
:102b1400400237003f0237003e0237003d023700d3
:102b24003c0237003b0237003a02370039023700d3
:102b340038023700370237003602370035023700d3
:102b440034023700330237003202370031023700d3
:102b5400300237002f0237002e0237002d023700d3
:102b64002c0237002b0237002a02370029023700d3
:102b740028023700270237002602370025023700d3
:102b840024023700230237002202370021023700d3
:102b9400200237001f0237001e0237001d023700d3
:102ba4001c0237001b0237001a02370019023700d3
:102bb40018023700170237001602370015023700d3
:102bc40014023700130237001202370011023700d3
:102bd400100237000f02370041003700c4f78000ad
:102be4008fbb9700848f530039003200b4f7800004
:102bf400848f53000b003a000702e900f407b20087
:102c040084bf9f00b4f788000042eb008fba97009e
:102c140004f77a00e0b52800ba680200000000005a
:102c240012ff37000fbb97000602e900f407b20059
:102c340084bf9f0080ba2800ba6802000000000028
:102c4400b5f780000005eb008fbb9700858f53001c
:102c54001200320007027800fb0720000404e80099
:102c64006e407c0000777a00e04f50000300320091
:102c74003e670200000000000300370000c2b300fa
:102c84003e670200000000000a05e8000b02640031
:102c9400b5f78000850f5200f0ff3a000502e90005
:102ca400f407b200b4f78800c0ba2800ba6802007a
:102cb400000000000a4078001c68020000000000c8
:102cc400f0ba2800ba68020000000000e7fe3700ee
:102cd40070c0b3003e67020000000000e3fe37004e
:102ce400b4f780008fba9700848f5200200032001e
:102cf400050278000005eb00fb0720000404e8004f
:102d04006e407c0000777a00e04f500003003200f0
:102d14003e670200000000000300370000c2b30059
:102d24003e670200000000000a05e8000b02640090
:102d3400b5f78000850f5200f0ff3a000502e90064
:102d4400f407b200b4f78800c0ba2800ba680200d9
:102d5400000000000a4078001c6802000000000027
:102d6400f0ba2800ba68020000000000bffe370075
:102d740070c0b3003e67020000000000bbfe3700d5
:102d84003667020000000000b4c5b300844f500051
:102d9400b6fe3a00366702000000000014c4b30017
:102da400844f50004200320007003e00704252003f
:102db400844f50000c00320063424200844f5000a4
:102dc400aafe3a000e00370034c4b300844f50000a
:102dd40028003200a60039000442e800844f500065
:102de400a2fe3a000c003700366702000000000023
:102df400e4c7b300844f50009cfe3a003c01370006
:102e04003667020000000000e4c7b300844f50009e
:102e140096fe3a004c0137001fb39700e40f5300ad
:102e24000500340000800200000000008003eb0075
:102e340097b79f008dfe3700c4f780008fba9700c4
:102e4400848f5200070032000502e900f407b20043
:102e540084bf9f0080ba2800ba6802000000000006
:102e640082fe370070c0b3003e670200000000001d
:102e74007efe3700b4f780000fbb9700840f530029
:102e8400070032000602e800f407b20084bf9f0086
:102e940010bb2800ba6802000000000073fe37006f
:102ea40070c0b3003e670200000000006ffe3700f0
:102eb400c1f780000104e900f807b20008057800b2
:102ec400b6f78000860f5400650032000000eb0066
:102ed400f40720007fb19700ee427c00e0cf52005f
:102ee4005a003a008802e90084826200eec37a0044
:102ef400e0cf5300550032000000e800820f50007c
:102f04005200360005027800ffb397008703e800fb
:102f1400f7b79f00868f50000a0032000040eb0094
:102f2400f707200000777b000603e900070363002e
:102f3400868f5000fbff3a00b6f788008043eb0011
:102f440007777b00b6f78000860f5200100032002e
:102f54006e427a00e04f520008003a000300370046
:102f6400eec37a00e0cf530005003a008502e80082
:102f7400f507b200a5b79f0005003700f40720004d
:102f84008502e90084826200868f5200f4ff3a00d1
:102f940050bb2800ba6802000000000074f8210049
:102fa400144278000483fb000403200004b3b90036
:102fb40004c9210004004300ba68020000000000b4
:102fc40084f82100140278006402620003003200d5
:102fd4000c00be00788002000000000060ba2800e7
:102fe400ba68020000000000afb29700888f520058
:102ff4000e003200850578006ec07d003e67020039
:1030040000000000b4f780006b727f000402e80047
:10301400f707200007026200b4f788008b05e80078
:1030240087856500888f5500f3ff3a00b4f7800068
:1030340084bf9f000042eb008fba970004f77a0028
:103044008a8f520009fe3a00050037000804e9009f
:103054000404640008057800860f54009eff3a00bb
:1030640070c0b3003e67020000000000fffd37009f
:10307400c2f780000204e900f807b20008057800ee
:10308400b6f78000860f5400660032000000eb00a3
:10309400f4072000ffb397008700e900ee427c00ac
:1030a400e0cf52005a003a008802e90084826200ac
:1030b400eec37a00e0cf5300550032000000e80070
:1030c400808f500052003a0005027800ffb3970049
:1030d4008703e900f7b79f00860f51000a0032000a
:1030e4000040eb00f707200000777b000603e900af
:1030f40007036300860f5100fbff3a00b6f7880010
:103104008043eb0007777b00b6f78000860f520000
:10311400100032006e427a00e04f520008003a007c
:1031240003003700eec37a00e0cf530005003a00f5
:103134008502e800f507b200a5b79f000500370037
:10314400f40720008502e90084826200868f520021
:10315400f4ff3a0050bb2800ba68020000000000e7
:1031640074f82100144278000483fb000403200057
:1031740004b3b90004c9210004004300ba68020082
:103184000000000084f82100140278006402620048
:10319400030032000c00be00788002000000000032
:1031a40060ba2800ba68020000000000afb29700bd
:1031b400888f52000e003200850578006ec07d00b5
:1031c4003e67020000000000b4f780006b727f00cd
:1031d4000402e800f707200007026200b4f7880041
:1031e4008b05e80087856500888f5500f3ff3a005a
:1031f400b4f7800084bf9f000042eb008fba9700b1
:1032040004f77a008a8f520098fd3a0005003700cf
:103214000804e9000404640008057800860f5400db
:103224009eff3a007fb39700e10f53002c003a0051
:1032340050bb2800ba6802000000000077f82100a3
:10324400974378000780fb00040320000480b90042
:1032540004c9210004004000ba6802000000000014
:1032640084f8210014027800640262000300320032
:103274000c00be00788002000000000060ba280044
:10328400ba68020000000000b4f7800084bf9f0009
:10329400c4f780008fba9700848f52000a0032006e
:1032a4000043eb00f50720008fbb970006f77b0077
:1032b4008703e90085836300848f5300fbff3a0092
:1032c40087bf9f00b7f788000042eb000fbb970051
:1032d40004777b008003eb00f7b79f0063fd3700a2
:1032e40070c0b3003e670200000000005ffd3700bd
:1032f400c8f780000fba9700880f52000e00320002
:10330400c0ba2800ba680200000000008fba970013
:1033140008805200f007b2001c68020000000000a0
:10332400f0ba2800ba68020000000000c6f7800066
:1033340086bf9f004dfd370070c0b3003e6702009a
:103344000000000049fd3700b8f780008fbb9700ec
:10335400888f53000e003200c0ba2800ba680200f9
:10336400000000000fba970004005400f007b200f8
:103374001c68020000000000b0bb2800ba6802000c
:1033840000000000b5f7800085bf9f0037fd3700bf
:1033940070c0b3003e6702000000000033fd370038
:1033a400b4f780000044eb0085e1210088727a00c4
:1033b4000402e800f407b20084bf9f00b4f7880059
:1033c40040b52800cc69020000000000b6f7800078
:1033d400b6b79f00c4f78000a5ef2100884a7800a3
:1033e40085f8210095027800e48262005f003200d3
:1033f400570037009fb397008703e80097b79f00f3
:10340400f48f530019fd3a00ae3d020000000000a5
:1034140016fd3700baf780008a02e800f507b2000b
:10342400c4f78000848f520045003200ff4f5400df
:1034340043003600e4c7b300844f540040003e000c
:103444000fba97008a0f52000d003a000840780026
:103454003e67020000000000b4f7800008777a009d
:103464000402e800f407b20084bf9f00b4f78800a8
:103474000042eb008fba970004f77a00fbfc370098
:10348400c0ba2800ba680200000000000fbb970011
:1034940006005500fb0720000b0060001c680200ba
:1034a40000000000b0bb2800ba6802000000000061
:1034b400baf780008fbb97000702e9008b05620012
:1034c4008b0f5500100032000a024700ee427d00c7
:1034d400154298006e407d00e04f50000500320018
:1034e4003e67020000000000d0bb2800ba6802005a
:1034f400000000000a05e900f60720000605650043
:103504008b0f5500f0ff3a00084078003e67020038
:10351400000000008fbb970008f77b008702e800db
:10352400f40720008482620085bf9f00b5f7800005
:103534008502e80004826200b4f78800cbfc3700ff
:1035440070c0b3003e67020000000000c7fc3700f3
:10355400ea29020000000000403829000100200090
:10356400d28002000000000000063700f4b79f007c
:103574000042eb0084e79f00c601290007002000f9
:10358400e6af9f00f7af9f00041429000500200058
:10359400c4af9f00d5af9f00ccb79f00ddb79f009d
:1035a4000fad97009fad9700c4f7800085e121001f
:1035b40065437a000683fb0007002000e50720002e
:1035c400850f5300e08f5b00b9053e0006600100e3
:1035d400ba053700b6053700b5053700b40537001e
:1035e400b3053700b2053700b1053700b005370021
:1035f400af053700ae053700b0053700ac0537001e
:10360400ab053700ad053700a9053700a80537001d
:10361400a7053700a6053700a5053700a405370020
:10362400a3053700a2053700a1053700a005370020
:103634009f0537009e0537009d0537009c05370020
:103644009b0537009a053700990537009805370020
:103654009a05370079053700d20337001302370083
:103664001a02370009033700d802370090053700e3
:10367400ac0337008e0537008d0537008c05370005
:103684008e05370028053700430537000a05370043
:103694003b0437003a043700390437003804370054
:1036a4003704370036043700350437003404370054
:1036b40033043700320437007d0537007c053700ba
:1036c40025033700b001370079053700470037007c
:1036d40031023700270237007505370052013700e1
:1036e400b7023700720537007105370070053700df
:1036f4006f0537006e0537006d0537006c05370020
:10370400530137006a05370069053700680537003b
:103714007601370066053700650537000203370078
:103724006305370062053700610537002c02370056
:103734005f0537005e0537005d053700e903370094
:10374400eb043700fa03370022053700040537007d
:1037540057053700fe013700b60037002a0137004d
:103764008902370052053700180137001a01370063
:1037740016003700200037004d0537004c05370090
:103784003d013700a900370049053700f000370034
:1037940043013700460537005e043700df02370077
:1037a4004305370042053700060137005802370049
:1037b4003f0537003e0537003d053700d20337008b
:1037c4008c013700e4033700aa01370068fa0700c8
:1037d400e00f500039053a00c6f78000f6b79f00a5
:1037e400b7f78000b7b79f0034053700dc800200cc
:1037f400000000003105370048fb070074f8210081
:103804008042eb0094cf12002c053200c03829000e
:10381400010020007880020000000000c1bf2a00df
:103824000000eb0032660200000000005667020050
:1038340000000000603129000100200078800200af
:1038440000000000e1bf2a000000eb003266020025
:1038540000000000566702000000000040b5280088
:10386400cc6902000000000040152900010020007e
:10387400d28002000000000065f80700c202ab001d
:1038840005003200000129000100200078800200b8
:103894000000000004003700c0f3280001002000ed
:1038a4007880020000000000c0c2b3003e6702003e
:1038b4000000000000c2b3003e67020000000000e8
:1038c400048020005616800006026200e00f5200b9
:1038d40005003200e0f22800010020007880020098
:1038e4000000000004003700e0e728000100200089
:1038f4007880020000000000c0c2b3003e670200ee
:103904000000000000c2b3003e6702000000000097
:1039140064f5210014427800704262000500320010
:1039240080b1280001002000d280020000000000c5
:1039340004003700a0c4280001002000d280020047
:103944000000000064f5210014427800684262001f
:1039540005003a0060cf28000100200078800200b2
:103964000000000004003700a0d02800010020005f
:103974007880020000000000c0c2b3003e6702006d
:103984000000000000c2b3003e6702000000000017
:10399400a0d528000100200078800200000000006b
:1039a40084f52100144078001c6802000000000027
:1039b40040b52800cc6902000000000064f5210035
:1039c4001442780063426200e14f520005003a005d
:1039d400e0e6280001002000d28002000000000080
:1039e40004003700e0e5280001002000d280020036
:1039f4000000000074f82100144278008482fb0067
:103a04000403200004aab9006402b00085c62100a2
:103a140065027a000400010040152900010020001d
:103a2400d280020000000000a404370044fa07001a
:103a3400a20437000402e800f407b200c4f78800c7
:103a440022f907005cf807000042e900e94f520040
:103a540003003e0055f82100844a78000d00370029
:103a6400a4ef2100004aeb0080522800010020004e
:103a7400d2800200000000008001eb00a2002000c0
:103a8400110020009000200020f9070054f82100c4
:103a9400004ae9000044eb0054f8210097c0b30049
:103aa40094cf130011003a0008f9070042f8070008
:103ab40000447800e04f54000c003a00a4ef2100c9
:103ac400004aeb00e0f0280001002000d280020050
:103ad400000000008001eb00f2ff27008300780063
:103ae4002002200009f907000044780080f528002e
:103af40001002000d2800200000000000004290020
:103b040001002000d280020000000000d06a020000
:103b14000000000054f8210095c0b30094cf1200b7
:103b240003003a000880fb00dc6a02000000000089
:103b34005c6602000000000008c2b30036670200a1
:103b440000000000884f5000fcff3a005b0437007f
:103b54000402e800f407b200c4f78800dbf80700a9
:103b640015f807000002e900e30f520003003e00cd
:103b740064f82100004ae9000d003700a4ef210099
:103b8400004aeb0000b3280001002000d2800200ac
:103b9400000000008001eb00420020001100200022
:103ba40010002000d9f8070064f82100004ae90059
:103bb400a0f4280001002000d280020000000000d0
:103bc4003e04370092f707003c04370058520200c5
:103bd400000000003904370074f821000043eb00b2
:103be400944f130005003a0020ce28000100200065
:103bf400d28002000000000030043700425102006d
:103c0400000000002d04370064f52100c5cfb30087
:103c140014ca6200e0e5280001002000d2800200fe
:103c2400000000002504370065f5210015427800e6
:103c34000400a0000414a100844a7800e0e62800ef
:103c440001002000d2800200000000001b043700a5
:103c540064f521001434a000a0d028000100200045
:103c6400788002000000000040b52800cc69020002
:103c7400000000001104370064f521001434a10091
:103c840060cf2800010020007880020000000000be
:103c940040b52800cc69020000000000070437008a
:103ca40074f821008043eb0094cf130005003a0020
:103cb40020ce280001002000d28002000000000075
:103cc400fe033700cb62a900c962a900e0e728001f
:103cd40001002000788002000000000040b52800a8
:103ce400cc69020000000000f403370074f82100de
:103cf4008042eb0094cf120005003a0020ce280049
:103d040001002000d280020000000000eb03370015
:103d140064f52100144278007042620004003a0005
:103d240000b6280001002000d2800200000000003c
:103d3400c962a800cb62a900e0f2280001002000bb
:103d4400788002000000000040b52800cc69020021
:103d54000000000021e3a800b0002000fa65020082
:103d640000000000f4042000840f500004003e0012
:103d740080bd280001002000d28002000000000065
:103d840021e3a900cd0337000402e800f407b200e0
:103d9400c4f788004df8070087f70700000678008d
:103da4000c4078008467020000000000483d2900b0
:103db400090020000800be00788002000000000016
:103dc4000c4078001c680200000000000800be00df
:103dd40078800200000000000c4078008668020031
:103de4000000000040b52800cc690200000000007b
:103df400b20337000402e800f407b200c4f78800f5
:103e040032f807006cf707000080fb0084f52100fe
:103e14009440780008660200000000000006780064
:103e24000c4078008467020000000000483d29002f
:103e3400090020000800be00788002000000000095
:103e44000c4078001c680200000000000800be005e
:103e540078800200000000000c40780086680200b0
:103e64000000000040b52800cc69020000000000fa
:103e74009203370074f821000043eb00944f1300c1
:103e840005003a0011c0b300014078007e740200be
:103e9400000000008903370060df280001002000d3
:103ea400d28002000000000084033700803829001b
:103eb40001002000d280020000000000d06a02004d
:103ec400000000000000fe007c033700688102004f
:103ed40000000000e04f50007803320015c0b3002a
:103ee400a47f2200054a7800002229000100200056
:103ef400d28002000000000002088000f0d32000fd
:103f040031002000e3ff27000508800002825200f0
:103f14006123b800800f5300818f5b0006003100dd
:103f2400830f5200f8ff36000600500087805800c7
:103f340005017800f4ff3700b665020000000000b8
:103f4400d06a0200000000000000fe005b0337009e
:103f5400b4f7070000047800e00f54005703320060
:103f6400ae560200000000000804e900fcff3a001d
:103f740052033700abf7070000047800e00f540049
:103f84004e03320092560200000000000804e900cb
:103f9400fcff3a0049033700a2f707000004780049
:103fa400e00f54004503320049b528000a00be0062
:103fb4007880020000000000ca56020000000000e1
:103fc4000080fb008af6070009007800cc69020033
:103fd400000000000804e900f4ff3a00370337004a
:103fe40074f821008043eb0094cf130005003a00dd
:103ff40020ce280001002000d28002000000000032
:104004002e033700c002a900c202a80021e3a800c1
:1040140002088000f0f9200001002000e3ff2700df
:1040240005088000028252006123b800800f53000b
:10403400818f5b0006003100830f5200f8ff3600c9
:10404400060050008780580005017800f4ff37000f
:10405400a0002000fa65020000000000041b2000fc
:10406400840f50001b00360090002000fa65020007
:1040740000000000742b2000840f5000150036004f
:1040840000012900010020007880020000000000e7
:1040940040b52800cc6902000000000074f821003b
:1040a400144278008482fb000403200004aab900af
:1040b4000402b00085c6210065027a0004000100f4
:1040c400000a290001002000d28002000000000044
:1040d4000d003700c002a900c202a90080cb28004d
:1040e40001002000d280020000000000c0f328007c
:1040f40001002000788002000000000040b5280084
:10410400cc6902000000000021e3a900eb023700a3
:1041140074f8210094427800e0cf520005003a0080
:1041240020ce280001002000d28002000000000000
:10413400e20237008582fb000403200004aab900d0
:104144002402b00085c6210065027a000400010043
:10415400c0fa280001002000d28002000000000004
:10416400c002a900c202a900c0f328000100200077
:10417400788002000000000040b52800cc690200ed
:1041840000000000cd023700800829000100200053
:1041940078800200000000007a680200000000003d
:1041a4006042290001002000788002000000000025
:1041b40040b52800cc69020000000000bf023700af
:1041c400d869020000000000bc02370015f70700a0
:1041d40000047800c02e290001002000788002002d
:1041e40000000000080078002a68020000000000b7
:1041f400c040290001002000d2800200000000001d
:10420400e4ff2300840f54000a003e00e00f540032
:10421400aa02320005088000080444000802e900ec
:104224000708800005835300860f5200fcff3e0000
:10423400a20237006140b800e00f5000e08f580040
:104244009e02320002088000000040008180480085
:1042540061005000e0805800e3ff2700050880005b
:10426400028252006123b800800f5300818f5b00eb
:1042740092023100830f5200f8ff3600060050000e
:104284008780580005017800f4ff3700e5f6070041
:1042940000047800c02e290001002000788002006c
:1042a40000000000080078002a68020000000000f6
:1042b4002041290001002000d280020000000000fb
:1042c400803e20000040b800e00f5000e08f58000e
:1042d4007a02320002088000000040008180480019
:1042e40061005000e0805800e3ff270005088000cb
:1042f400028252006123b800800f5300818f5b005b
:104304006e023100830f5200f8ff360006005000a1
:104314008780580005017800f4ff370084f82100f5
:104324001420a0006502370074f821008042eb00dd
:1043340094cf120005003a0020ce2800010020008e
:10434400d2800200000000005c023700ee5602003a
:10435400000000005902370016c0b300a5ef210089
:10436400864a78000404e800f807b20085e12100d9
:1043740065437c00e04f53005002320012c0b3008a
:1043840015002000e1c3b3008041eb00f0072000da
:1043940087e12100814f530001003a000341780076
:1043a4008502e800048342000003630067437b0046
:1043b400e04f5300f7ff3a00a4ef2100024a7800cf
:1043c400fa8f52000300340015c0b300054a780088
:1043d4003a023700a4ef21000043eb00944f13008e
:1043e40036023a00c8f78800f3f5070000047800a5
:1043f400c4f7800084027800f507b20086e121004a
:1044040066c37a00d5c3b300854f530022003a0037
:104414008802e900e28f52001b003e000402e8001b
:10442400f407b200c4f78800050378007833b900b4
:10443400a4ef210084024300050378000002eb008e
:104444008043eb00076b78000402e800f80f520089
:10445400fcff3a00c4f7800080e12100e7c3b30009
:10446400f107200003003700866a78000402e800a0
:104474000102620060437a00874f5300faff3a005a
:10448400c4f788000d02370015c0b300a4ef210063
:10449400054a780009023700e00f540015003a007d
:1044a400b9ef2100180020002cbc28006dba2800a8
:1044b400084078001c680200000000000c0078002e
:1044c400ba6802000000000009007800ba6802001f
:1044d400000000000d007800cc690200000000001c
:1044e4000804e800f8844400e40f5400f0ff3a00a4
:1044f400f20137000802e900e20f520005003e0015
:1045040040b52800cc6902000000000028fa8800a9
:10451400ea01370015c0b300a4ef2100054a780072
:10452400e60137000402e800f807200008026200f0
:10453400c4f78800a0f507008004780063f607003c
:10454400c4f780000804620084e12100e4427c0096
:1045540094c2b30084cf52000e003a0074f82100d4
:10456400144278008482fb000403200004aab900ea
:104574007c02420085c6210065027a0009007800a9
:104584000400010040b52800cc69020000000000ce
:10459400ca01370015c0b300a4ef2100054a780012
:1045a400c601370016c0b300a5ef2100864a780083
:1045b4008402e800f507b20086e12100e6c27a0031
:1045c400e0cf5200bd0132000482e80011c0b30004
:1045d40020c2b3000041eb00f707200080cf520057
:1045e40001003a008240780087026200e6c27a0045
:1045f4000402e800e0cf5200f8ff3a00a4ef2100e3
:10460400014a7800e0cf5000ac013a00202f290085
:1046140001002000788002000000000020c2b300e6
:104624003e67020000000000c4f780000402e800b6
:10463400f407b20085e1210065407a0025c2b30089
:10464400854f50001f00320088e1210069f52100e8
:104654000987e8007cf821008dc62100c4f7880092
:104664003e67020000000000c4f7800068407a0042
:104674000080fb009943780068c2630003003200a5
:104684009e40780008660200000000001c4278008a
:104694008482fb000403200004aab90068024200db
:1046a4006d027a0004000100c4f780000402e800ef
:1046b400f407b20068407a0025c2b300854f500069
:1046c400e6ff3a00c4f7880020c2b3003e67020048
:1046d4000000000040b52800cc6902000000000082
:1046e4007601370074f82100144278008482fb00bc
:1046f4000403200004aab90086c6210066027a00d9
:10470400040001006d01370074f8210014427800a0
:104714008482fb000403200004aab9000482e80098
:1047240085c6210065027a00040001006301370098
:1047340074f82100144278008482fb0004032000f2
:1047440004aab9006402420085c6210065027a0009
:10475400040001005901370074f821001442780064
:104764008482fb000403200004aab900660242000c
:1047740085c6210065027a00040001004f0137005c
:10478400202f290001002000788002000000000092
:1047940009f5070080067800c4f780000402e900e8
:1047a400f407b200c4f788009ef507000006e8008d
:1047b400b1f50700e00f50004d00320084f52100f0
:1047c400004a7800e80f5000030034000482e90036
:1047d4001454a0004600370064f521001454a100cd
:1047e400430037000d007800546a02000000000006
:1047f40005c2b3001ec2620005003a0087c0b300c0
:1048040086f5210096cf130005003a000b0037000f
:1048140005c1b30084f5210094cf120007003200d3
:10482400b0c3b3003e6702000000000086f521001b
:10483400164078001c680200000000009e437800c7
:1048440068c263000600320084f5210094407800b9
:104854000d00780008660200000000008006780061
:1048640076f82100164378008682fb0004032000ba
:1048740004aab9006802420087c6210067027a00d0
:104884000d00780004000100e0b79f0000c2b300ef
:104894003e6702000000000005c4b3001ec26200af
:1048a400160032000800be007880020000000000fc
:1048b4001e437800684263000600320087f5210039
:1048c400974078006fb0970008660200000000006f
:1048d400e0b79f006fb09700546a02000000000028
:1048e40000c2b3003e67020000000000030037006e
:1048f4006ef52100882f2900090020000c06e9002c
:10490400b8ff3a0040b52800cc690200000000005e
:10491400ea003700802f290001002000788002007f
:1049240000000000c4f780000402e800f407b200ad
:1049340085e1210065427a0085c7b300854f5200a6
:1049440011003200f4c25200854f52000a003200b6
:1049540085c2e900854f5200090032008042eb0015
:10496400c5ef9f0075c7b300854f520009003a0098
:104974003400200005003700140020000300370035
:1049840024002000010037000002eb000442e8008c
:10499400c4ef9f0023f507000004780036f50700f4
:1049a400e00f50000900320084f52100004a78002d
:1049b400e80f5000030034000482e9001454a000fe
:1049c4000200370064f521001454a1004feb970056
:1049d400e04f53000400320064f82100944378004f
:1049e40087e79f00064ae900e00f540028003200e0
:1049f4007df821000e03200069f521000986e800f6
:104a04009d4278000582fb000ea2b9006a024200b2
:104a140086c6210066027a000400010099437800ea
:104a240068c26300030032009c40780008660200fc
:104a340000000000546a02000000000005c2b30038
:104a440019c2620004003a0086c0b3009c4f1300f0
:104a540004003a000900370007c1b3009ccf1300db
:104a640006003200b0c3b3003e670200000000003d
:104a74001c4078001c6802000000000000c2b30063
:104a84003e670200000000000804e900dcff3a0071
:104a94004fea9700e04f52000300320064f821000f
:104aa4008fe29700054a780040b52800cc690200df
:104ab4000000000081003700e02f290001002000e1
:104ac400d28002000000000074f821001442780033
:104ad4008482fb000403200004aab9006c02420093
:104ae40085c6210065027a000400010073003700c6
:104af4004030290001002000d280020000000000a4
:104b040074f82100144278008482fb00040320001e
:104b140004aab9006e02420085c6210065027a002b
:104b24000400010065003700c012290001002000c4
:104b3400d28002000000000074f8210014427800c2
:104b44008482fb000403200004aab900700242001e
:104b540085c6210065027a00040001005700370071
:104b64006013290001002000d28002000000000030
:104b740074f82100144278008482fb0004032000ae
:104b840004aab9007202420085c6210065027a00b7
:104b94000400010049003700201229000100200010
:104ba400788002000000000074f8210014427800ac
:104bb4008482fb000403200004aab90074024200aa
:104bc40085c6210065027a000400010088f307000d
:104bd4003a00370093f40700000478004fa89700c8
:104be400dfa8970078800200000000000800780029
:104bf400546a020000000000e00f54000b00320071
:104c040079f821008cc62100194378008682fb00c4
:104c14000403200004aab900760242006c027a0060
:104c2400040001000804e900f7ff3a0040b5280039
:104c3400cc690200000000002000370079f407006e
:104c4400000478002fa89700bfa89700788002007e
:104c540000000000e00f54001000320079f8210039
:104c64008cc62100994378008782fb00040320004e
:104c740004aab900780242006c027a000400010020
:104c84000080fb005af3070000c2b3003e67020035
:104c9400000000000804e900f2ff3a006fa8970042
:104ca400ffa89700d2800200000000000300370034
:104cb40015c0b300a4ef2100054a7800c4f78000b2
:104cc4000402e800f407b200c4f788000002eb0015
:104cd400a5ef21000043eb00954f130018003200ac
:104ce400e0e92800010020007880020000000000b4
:104cf400c4f78000ffb39700848f53000400310091
:104d0400074052001c680200000000000600370043
:104d140005c8b30005424200efea9700054052007f
:104d24001c68020000000000a4ef2100004aeb0010
:104d340040b52800cc6902000000000014002000e7
:104d4400b5f78000c6f78000850f530005003200d8
:104d5400e00f520014fa32004fb69700dfb6970006
:104d6400020037004fb69700dfb697003fb39700b5
:104d7400c6f78800b6f78800a5f6370004e080007f
:104d84000580210065437a0035c8b300854f530080
:104d94000e003a000402e80004e0880005802100c7
:104da40065437a0005ceb300854f530007003e00eb
:104db400058021008502420006ceb3000402e8000b
:104dc400d54f1300fdff360004e088000000060004
:104dd40004802100144378000042eb0005ceb300a8
:104de400854f5300250036001480210014427800ba
:104df4000482fb004822dd002580210095427800d2
:104e04008582fb0005024200840f500010003a0026
:104e14000b0037008403e80065c17b004811dd0006
:104e24008483e800e5c37b008783fb00870341009c
:104e3400870f5000030032000642b000080037001c
:104e44000002eb008408780014c0b3000b003700a4
:104e54000642b0000002eb000580210003ceb3003f
:104e64000683fb00630343000602420065437a00a5
:104e7400834f5300e7ff3e000042eb0004407800fc
:104e840000000600c2f780009042780014c0b3000e
:104e9400e0cf52001500320084e121006442790021
:104ea40084cf5200070032000300370061437a00c8
:104eb40086cf520006003200c2f788000042eb00a1
:104ec4000a00370002027800f707200081e1210080
:104ed4000402e80007026200c4f78800d0427800a8
:104ee400e0cf5200f1ff3a0014c0b3000440780050
:104ef40000000600881f780005e08000048021007f
:104f040064c27a0086c2b300864f52000c003a0095
:104f14008502e80005e08800ad00070004e0800099
:104f24000580210065437a0095c2b300854f530084
:104f340079003a000402e80004e0880076003700b3
:104f4400f6cbb30006434200f94f530008003e007d
:104f54000482fb001404b1000402420086c0210054
:104f640066007a008502e80005e088006a003700e0
:104f740006c8b300864f520006003e0006cdb300bb
:104f8400064342000000eb00e94f53005400360092
:104f9400610037008502e80005e088000482fb0018
:104fa400050020003409b1000580b100ea0f520069
:104fb400e08f5a0048003e000460010014003700ee
:104fc400090037004400370020003700290037006b
:104fd4003b00370040003700310037003300370012
:104fe4003d0037001500370074f8210014427800a2
:104ff4008482fb000403200004aab9006a02420070
:1050040085c6210065027a000400010042003700d1
:1050140074f82100144278008482fb000403200009
:1050240004aab9006802420085c6210065047a001a
:10503400670007000800010037003700ca56020065
:10504400000000000080fb003300370074f82100ea
:10505400144278008482fb000403200004aab900ef
:105064007402420085c6210065027a000400010032
:105074002900370074f82100144278008482fb0070
:105084000403200004aab9007802420085c6210066
:1050940065027a00040001000080fb001e00370056
:1050a40010168000610060001b003700501680005d
:1050b4004b00de00610060000080ea00160037004b
:1050c40021e3a800c0002000fa65020000000000ef
:1050d40021e3a900100037000000eb000e003700a8
:1050e40006802100068342000000eb0002cdb300dd
:1050f4006a00b9000482fb00000042000003b10012
:105104008502e8005642780082434200e9cf53000a
:10511400f7ff360005e088004f0478000000060021
:10512400889fbe008a1f780072ff07008004780001
:105134000a802100a8c2b30005e080006ac27a0098
:105144008502e80005e08800884f52000c00320018
:1051540004003e0065c2b300854f520018003a00b7
:1051640011003700f5c2b300854f52000800320029
:10517400c5c7b300854f520011003a000d00370037
:105184005cff070000c8b90080047800eaff37001c
:1051940058ff070080027800110009008504d80038
:1051a40080047800e4ff370052ff07008084640025
:1051b400e1ff37004fff070080847400deff3700f3
:1051c400090078004f0578004f04be000000060077
:1051d400889fbe008a9fbe00d1ff070000047800ac
:1051e400098021005afd2f00fbff2f0005e08000fd
:1051f40069c27a000503e80006e088000482fb0027
:10520400050020000402450085824d00f30f520082
:10521400e08f5a005b003e00046001001600370076
:10522400580037001100370056003700550037008a
:105234005400370053003700520037005100370044
:10524400500037004f0037004e0037004d00370044
:105254004c0037004b0037004a0037004900370044
:105264001e0037004000370006003700acff07007f
:1052740000045400ddff3700a9ff070000044400c8
:10528400daff37000603e800e9427b00d4c3b30029
:1052940084cf52000a003a00a1ff07001400200046
:1052a400880f5000010034000002eb000404780071
:1052b40004e080000402e80004e08800cbff37002b
:1052c40097ff070014002000880f500001003500ec
:1052d4000002eb0004047800c4ff37000603e80072
:1052e40069427b00e5c3b300854f52000a003a00cf
:1052f4008bff07000804680008f0a7000804ea0010
:105304000804ea004f44de0004e080000402e800e0
:1053140004e08800b5ff3700d5c3b300854f5200c1
:105324000a003a007eff070014002000880f500096
:1053340001003d000002eb000404780004e080005a
:105344000402e80004e08800a8ff370074ff0700a7
:1053540014002000880f500001003c000002eb0004
:1053640004047800a1ff37006dff070008046800fb
:1053740008f0a7000804ea000804e9004f44de002e
:105384009aff3700080078004f05be004f04be00a6
:105394000000060015ceb30004802100054a780001
:1053a40000c2eb0015802100844a78008502e800e1
:1053b400844a780015cab30034802100054a780075
:1053c40044802100fb030900005aeb0000000600a2
:1053d4004f03b000889fbe008a9fbe008c9fbe0012
:1053e4008e1f7800c8f78000b0f78000800f54004b
:1053f4000f0032000802780087e12100f2c9b300ef
:10540400f3cdb300f1072000e7427a0002c3420063
:10541400f94f530002003e0083c2620085737a0094
:105424000402e80001026200800f5200f6ff3a0015
:1054340084e12100e4427c0004cdb30004c24200b4
:10544400e94f5200b4003e00f4fb2f000f0242006b
:105454007e8357008042eb00056a7800860f520075
:10546400fdff3a00de0d0200000000004882de006d
:1054740094c79f00a0c79f00fc80570054fe0700fc
:10548400e04f50001e003200afb0970004802100ae
:1054940064c278000482fb0081037800d24d2000ae
:1054a40004015100828f50000e003d0001024200b1
:1054b40025f22f0084824200068021008682420069
:1054c4000682400006034100555a7800860f5200b8
:1054d400fdff3a008703e8008180ea0001014100f2
:1054e4008283430002402000070151000080210014
:1054f400008043008000eb00280902000000000047
:10550400680f0200000000000046eb003a00200093
:105514008de12100ae9f280034003700e04f560093
:105524001a003a00680f0200000000008e047800a0
:105534000004eb002b0220005900780051fe070004
:10554400e04f50000500320004c8b3000444440096
:105554008882fb0005003a000c0037000804e800cc
:105564008b0f5400f4ff3a0008003700084278001b
:1055740000fc2f000f00400004707d007408200020
:10558400848f520010003a000e003700c4f78000e8
:10559400ed427a0026c2b30086cf520001003a00e1
:1055a4000c04a2008543780006fc2f000f0343007f
:1055b40007737d000402e800f407b200c4f7880012
:1055c400010037001cc0b3000a05e80044022000b3
:1055d400840f550005003a008021290001002000b5
:1055e400d28002000000000026043700b4f78000d7
:1055f400c5f78000848f5200c8ff3a00630255004b
:10560400e10f52001f043600c4cdb3000445450029
:105614008ac79f0004802100944178001fc497002a
:105624004844dd002fc297000482fb0004044400b8
:105634008003eb00070278000680210000ceb3004f
:10564400834478001c00370080cf51000a003e00dc
:105654000b043700e00f5200fbff3200a7b79f0096
:105664000a81fb00d20db10084007800848f5300be
:10567400150036001f003700894278008582fb0040
:10568400050eb1008400e80066c178004811dd0011
:105694008480e800e6c078008180fb00810041003e
:1056a400888f500002003100e303420085834300e9
:1056b400e382420005024200e6427a0080cf5200b3
:1056c400e4ff3600edff37000403e8000580210005
:1056d40005034300040041000000e8008502400087
:1056e400c66278000402e90084007800848f5300c5
:1056f400fbff3600878340000480210004804300c0
:1057040008fc2f000f044400810044001a09020021
:1057140000000000db03370060932800d9fd070078
:10572400e04f5000740332008005eb000be088006a
:105734001be088002be088003be0880084f821000f
:105744001400a0008ac0210019000900001deb000c
:105754000b0678000b027800edc8b30029c2b30031
:10576400e00f520010003a0004e0800005802100a0
:10577400e5457a00f5cdb30085cf5500bc0336006e
:105784008b85fb000b0eb1000403e80005802100ab
:1057940065467b004866dd000482e80065427a00c5
:1057a4000482fb000406760006e08000e303430065
:1057b4000480210064c27b000482fb0005002000f9
:1057c4000408b1000580b10010022000800f5200cf
:1057d400e08f5a0022033e000460010021003700dc
:1057e4002f0037001e0337001d0337005800370011
:1057f400650037007d0037008d00370091003700c9
:10580400d40037000b013700150337004f01370070
:1058140094013700e3013700f5013700e601370052
:1058240011023700010237001e0237000c03370053
:10583400a302370086023700090337000803370044
:105844004402370035023700c7023700d40237005c
:1058540024023700510237006c023700ee02370091
:10586400fd0237006602430004e08800640343003d
:105874000480210064447b000884fb001804b10008
:1058840053fe07000804440084c0210000327c0059
:105894003afd07000002eb0004447800f4023700ec
:1058a4006403430006e0880049fe0700e00f50004f
:1058b4000a003a0005e080000480210064c27a00f6
:1058c40036c8b300864f52001c00320006ceb30027
:1058d400864f52000e0036005f03370004e080005c
:1058e4000580210065437a000402e80004e0880092
:1058f40025c8b300854f53005a033a00630252008f
:1059040004e08800140020000044eb00d8023700b3
:10591400068021000683420030c8b30007ceb300de
:105924008502e80056427800804f5200030032009e
:10593400874f5200faff3600460337008582e9009c
:1059440005e08800140020000044eb00c802370082
:105954006403430006e088001dfe0700fa80570038
:105964001bfd07000002eb0068c0b300e04f5000cd
:10597400bf0232003fb2970004e088000002eb004f
:1059840004447800ba0237006403430006e0880048
:1059940025e080000002eb0078c0b300e98f5200dc
:1059a400b3023e0005824200c7c3210004824300c3
:1059b4000603e9000b0a43008502e80025e088009d
:1059c40003fe0700fa80570001fd07000002eb0008
:1059d40068c0b300e04f5000a5023200bfb2970088
:1059e40005e0880004447800a1023700a093280051
:1059f400ba6802000000000025e080000002eb000d
:105a040088c0b300848f5200990232000502e90075
:105a140024e0880004024200c5c32100e5027a00a4
:105a240005e088000002eb0004447800900237008f
:105a34008783450007e088000002eb0004447800f7
:105a44008b0237006403430006e088000a802100cb
:105a540088f821002700370089cf520011003a004e
:105a64000402e8006a407a00894f50000a003200bc
:105a74001800a1000402e80004e088003e67020068
:105a8400000000001800a00004e080006a407a00d2
:105a9400894f5000f6ff3a000402e80004e0880051
:105aa40014003700f6cbb30006c34200f94f53008d
:105ab4000500360007c8b30087c34200f6c5b3002b
:105ac40086cf530006003e00c1fd07001800a10068
:105ad4002a680200000000001800a000050037003a
:105ae400b6c3b30086cf520002003a000402e800b5
:105af40004e0880004e08000ea427a00f6cdb300b6
:105b040086cf520003003e0036c8b30086cf520051
:105b1400d1ff3a000402e90005802100e5427a0041
:105b2400b4c3b30084cf52000600320088f82100c9
:105b34001800a10010942800cc69020000000000a5
:105b44001800a0008dfc07000002eb00044478005c
:105b54004702370084f821001400a10064024300c6
:105b640004e0880005802100e5427a0089cf5200d4
:105b740010003a00650243000580210065407a0068
:105b8400894f500009003200050478000402e8003f
:105b940004e088003e6702000000000004e080008a
:105ba40068407a00894f5000f8ff3a000402e80088
:105bb40004e0880004e080000580210065437a0049
:105bc40038c0b300c5c2b300854f530003003a0088
:105bd4000402e80004e088000044eb0004e08000d4
:105be4000580210065457a000a85fb001a04b1008e
:105bf4008001eb00f2ff27008300780003007800a7
:105c0400880f0200000000000a05450084c021003e
:105c140000327d0004e080000402e80004e0880013
:105c240056fc070084f821001400a0000002eb00d9
:105c34000f0237006402430015e0800048c0b3003f
:105c4400e38f520003003e008502e80015e088005f
:105c54000044eb000580210065457a000a85fb00bd
:105c64000a04b10016e080006633b90020c52100a3
:105c7400060340000a4b7800c853de00174398001f
:105c84000402e80004e0880065437a00d5c3b30049
:105c9400854f530008003a000402e80004e088003d
:105ca4004bfd07000a05e9000a05450084c02100f0
:105cb40000327d000100370038c0b30004e08000ea
:105cc40005802100e5427a000402e80004e088002f
:105cd400b4c8b30084cf520009003a001ae080002f
:105ce4003bfd07006652b90046c52100040243008b
:105cf400004a78004800de00104298000100370096
:105d040038c0b30004e080000580210065437a00b8
:105d1400f5cdb300854f53000800360016e080002f
:105d24006633b90005c5210086824200844a7800a2
:105d34004822de00944298000100370038c0b300c6
